:020000020000FC
:1000000000C00FE50DBF08E00EBFE4E2F1E00FEF26
:1000100001BB04BB00E005BB02BBC89B0E941900EA
:10002000C99B0E942400CA9B0E94310000E005BBCE
:10003000F4CF0E947B000E9485000E943E000E9437
:1000400058000E94240008950E947B0028E825BBE8
:100050000E9481000E94800028EC25BB0E94810044
:1000600008950E947B0028E425BB0E9481000E9425
:10007000800028EC25BB0E948100089520E02830F4
:1000800051F030FF0E94690030FD0E9472003795E8
:1000900023950C943F002E3051F040FF0E946900E0
:1000A00040FD0E947200479523950C944B000895E3
:1000B00020E0263029F00E94690023950C94590015
:1000C0000E9469000E9472000E9469000E947200F2
:1000D000089501E013E005BB0E94810015BB0E945A
:1000E0008100089505E017E005BB0E94810015BB63
:1000F0000E948100089523E022BB25E022BB0895E1
:100100000895919A00009198089545913591E833AA
:1001100029F00895E4E2F1E00C948900F130D1F384
:100120000C9489000F480FF4103C1130114011500D
:08013000118811A011DB12601F
:00000001FF
